{
  "contractName": "Honeypot",
  "abi": [
    {
      "inputs": [],
      "stateMutability": "payable",
      "type": "constructor"
    },
    {
      "anonymous": false,
      "inputs": [
        {
          "indexed": false,
          "internalType": "address",
          "name": "winner",
          "type": "address"
        }
      ],
      "name": "BountyClaimed",
      "type": "event"
    },
    {
      "inputs": [],
      "name": "bounty",
      "outputs": [
        {
          "internalType": "uint256",
          "name": "",
          "type": "uint256"
        }
      ],
      "stateMutability": "view",
      "type": "function"
    },
    {
      "inputs": [],
      "name": "claimed",
      "outputs": [
        {
          "internalType": "bool",
          "name": "",
          "type": "bool"
        }
      ],
      "stateMutability": "view",
      "type": "function"
    },
    {
      "inputs": [
        {
          "internalType": "address",
          "name": "",
          "type": "address"
        }
      ],
      "name": "enclaveApproved",
      "outputs": [
        {
          "internalType": "bool",
          "name": "",
          "type": "bool"
        }
      ],
      "stateMutability": "view",
      "type": "function"
    },
    {
      "inputs": [
        {
          "internalType": "address",
          "name": "",
          "type": "address"
        }
      ],
      "name": "enclaveData",
      "outputs": [
        {
          "internalType": "bytes",
          "name": "sgx_report",
          "type": "bytes"
        },
        {
          "internalType": "bytes",
          "name": "ias_sig",
          "type": "bytes"
        }
      ],
      "stateMutability": "view",
      "type": "function"
    },
    {
      "inputs": [
        {
          "internalType": "address",
          "name": "",
          "type": "address"
        }
      ],
      "name": "enclaveRequested",
      "outputs": [
        {
          "internalType": "bool",
          "name": "",
          "type": "bool"
        }
      ],
      "stateMutability": "view",
      "type": "function"
    },
    {
      "inputs": [],
      "name": "owner",
      "outputs": [
        {
          "internalType": "address",
          "name": "",
          "type": "address"
        }
      ],
      "stateMutability": "view",
      "type": "function"
    },
    {
      "inputs": [
        {
          "internalType": "address",
          "name": "enclaveAddr",
          "type": "address"
        },
        {
          "internalType": "bytes",
          "name": "sgxReport",
          "type": "bytes"
        },
        {
          "internalType": "bytes",
          "name": "iasSig",
          "type": "bytes"
        }
      ],
      "name": "submitEnclave",
      "outputs": [],
      "stateMutability": "nonpayable",
      "type": "function"
    },
    {
      "inputs": [
        {
          "internalType": "address",
          "name": "enclaveAddr",
          "type": "address"
        }
      ],
      "name": "approveEnclave",
      "outputs": [],
      "stateMutability": "nonpayable",
      "type": "function"
    },
    {
      "inputs": [
        {
          "internalType": "address",
          "name": "enclaveAddr",
          "type": "address"
        },
        {
          "internalType": "bytes",
          "name": "proofBlob",
          "type": "bytes"
        },
        {
          "internalType": "bytes",
          "name": "sig",
          "type": "bytes"
        }
      ],
      "name": "collectBounty",
      "outputs": [],
      "stateMutability": "nonpayable",
      "type": "function"
    }
  ],
  "bytecode": "0x6080604052335f806101000a81548173ffffffffffffffffffffffffffffffffffffffff021916908373ffffffffffffffffffffffffffffffffffffffff160217905550346001819055506124b1806100575f395ff3fe608060405234801561000f575f80fd5b5060043610610091575f3560e01c8063adb2ca5011610064578063adb2ca501461011e578063b92769fc1461014e578063bb9e79a81461017e578063e834a8341461019a578063f2f7cc6f146101b857610091565b806328a4e0e0146100955780638da5cb5b146100b1578063943dfef1146100cf57806394c8e23c146100ed575b5f80fd5b6100af60048036038101906100aa91906115bb565b6101d4565b005b6100b9610447565b6040516100c69190611652565b60405180910390f35b6100d761046a565b6040516100e49190611683565b60405180910390f35b6101076004803603810190610102919061169c565b610470565b604051610115929190611741565b60405180910390f35b6101386004803603810190610133919061169c565b61059c565b6040516101459190611790565b60405180910390f35b6101686004803603810190610163919061169c565b6105b9565b6040516101759190611790565b60405180910390f35b610198600480360381019061019391906115bb565b6105d6565b005b6101a2610882565b6040516101af9190611790565b60405180910390f35b6101d260048036038101906101cd919061169c565b610894565b005b60035f8473ffffffffffffffffffffffffffffffffffffffff1673ffffffffffffffffffffffffffffffffffffffff1681526020019081526020015f205f9054906101000a900460ff161561025e576040517f08c379a000000000000000000000000000000000000000000000000000000000815260040161025590611803565b60405180910390fd5b60045f8473ffffffffffffffffffffffffffffffffffffffff1673ffffffffffffffffffffffffffffffffffffffff1681526020019081526020015f205f9054906101000a900460ff16156102e8576040517f08c379a00000000000000000000000000000000000000000000000000000000081526004016102df9061186b565b60405180910390fd5b5f82511161032b576040517f08c379a0000000000000000000000000000000000000000000000000000000008152600401610322906118d3565b60405180910390fd5b5f81511161036e576040517f08c379a00000000000000000000000000000000000000000000000000000000081526004016103659061193b565b60405180910390fd5b60405180604001604052808381526020018281525060055f8573ffffffffffffffffffffffffffffffffffffffff1673ffffffffffffffffffffffffffffffffffffffff1681526020019081526020015f205f820151815f0190816103d39190611b53565b5060208201518160010190816103e99190611b53565b50905050600160035f8573ffffffffffffffffffffffffffffffffffffffff1673ffffffffffffffffffffffffffffffffffffffff1681526020019081526020015f205f6101000a81548160ff021916908315150217905550505050565b5f8054906101000a900473ffffffffffffffffffffffffffffffffffffffff1681565b60015481565b6005602052805f5260405f205f91509050805f01805461048f90611986565b80601f01602080910402602001604051908101604052809291908181526020018280546104bb90611986565b80156105065780601f106104dd57610100808354040283529160200191610506565b820191905f5260205f20905b8154815290600101906020018083116104e957829003601f168201915b50505050509080600101805461051b90611986565b80601f016020809104026020016040519081016040528092919081815260200182805461054790611986565b80156105925780601f1061056957610100808354040283529160200191610592565b820191905f5260205f20905b81548152906001019060200180831161057557829003601f168201915b5050505050905082565b6004602052805f5260405f205f915054906101000a900460ff1681565b6003602052805f5260405f205f915054906101000a900460ff1681565b60025f9054906101000a900460ff1615610625576040517f08c379a000000000000000000000000000000000000000000000000000000000815260040161061c90611c6c565b60405180910390fd5b60045f8473ffffffffffffffffffffffffffffffffffffffff1673ffffffffffffffffffffffffffffffffffffffff1681526020019081526020015f205f9054906101000a900460ff166106ae576040517f08c379a00000000000000000000000000000000000000000000000000000000081526004016106a590611cd4565b60405180910390fd5b5f6106b883610aa9565b90505f6106c58284610b24565b90508473ffffffffffffffffffffffffffffffffffffffff168173ffffffffffffffffffffffffffffffffffffffff1614610735576040517f08c379a000000000000000000000000000000000000000000000000000000000815260040161072c90611d3c565b60405180910390fd5b5f61074761074286610cb7565b610ce4565b90505f61076d825f815181106107605761075f611d5a565b5b6020026020010151610df3565b90505f61079c6107978460018151811061078a57610789611d5a565b5b6020026020010151610e47565b610ed4565b9050808240146107e1576040517f08c379a00000000000000000000000000000000000000000000000000000000081526004016107d890611df7565b60405180910390fd5b600160025f6101000a81548160ff0219169083151502179055503373ffffffffffffffffffffffffffffffffffffffff166108fc60015490811502906040515f60405180830381858888f19350505050158015610840573d5f803e3d5ffd5b507fe0943793fa13cf32cb5d88a07aac8f65c413c3239fe582de3cadf3426095b37f336040516108709190611652565b60405180910390a15050505050505050565b60025f9054906101000a900460ff1681565b5f8054906101000a900473ffffffffffffffffffffffffffffffffffffffff1673ffffffffffffffffffffffffffffffffffffffff163373ffffffffffffffffffffffffffffffffffffffff16146108ea575f80fd5b60035f8273ffffffffffffffffffffffffffffffffffffffff1673ffffffffffffffffffffffffffffffffffffffff1681526020019081526020015f205f9054906101000a900460ff16610973576040517f08c379a000000000000000000000000000000000000000000000000000000000815260040161096a90611e5f565b60405180910390fd5b60045f8273ffffffffffffffffffffffffffffffffffffffff1673ffffffffffffffffffffffffffffffffffffffff1681526020019081526020015f205f9054906101000a900460ff16156109fd576040517f08c379a00000000000000000000000000000000000000000000000000000000081526004016109f49061186b565b60405180910390fd5b5f60035f8373ffffffffffffffffffffffffffffffffffffffff1673ffffffffffffffffffffffffffffffffffffffff1681526020019081526020015f205f6101000a81548160ff021916908315150217905550600160045f8373ffffffffffffffffffffffffffffffffffffffff1673ffffffffffffffffffffffffffffffffffffffff1681526020019081526020015f205f6101000a81548160ff02191690831515021790555050565b5f806040518060400160405280601a81526020017f19457468657265756d205369676e6564204d6573736167653a0a00000000000081525090505f81610aef8551610f57565b85604051602001610b0293929190611efb565b6040516020818303038152906040529050808051906020012092505050919050565b5f6041825103610c76575f805f602085015192506040850151915060608501515f1a90507f7fffffffffffffffffffffffffffffff5d576e7357a4501ddfe92f46681b20a0825f1c1115610bad576040517f08c379a0000000000000000000000000000000000000000000000000000000008152600401610ba490611f9b565b60405180910390fd5b5f6001878386866040515f8152602001604052604051610bd09493929190611fec565b6020604051602081039080840390855afa158015610bf0573d5f803e3d5ffd5b5050506020604051035190505f73ffffffffffffffffffffffffffffffffffffffff168173ffffffffffffffffffffffffffffffffffffffff1603610c6a576040517f08c379a0000000000000000000000000000000000000000000000000000000008152600401610c6190612079565b60405180910390fd5b80945050505050610cb1565b6040517f08c379a0000000000000000000000000000000000000000000000000000000008152600401610ca8906120e1565b60405180910390fd5b92915050565b610cbf6113fc565b5f60208301905060405180604001604052808451815260200182815250915050919050565b6060610cef826110b5565b610cf7575f80fd5b5f610d01836110fc565b90505f8167ffffffffffffffff811115610d1e57610d1d611497565b5b604051908082528060200260200182016040528015610d5757816020015b610d446113fc565b815260200190600190039081610d3c5790505b5090505f610d688560200151611183565b8560200151610d77919061212c565b90505f805f90505b84811015610de657610d908361123f565b9150604051806040016040528083815260200184815250848281518110610dba57610db9611d5a565b5b60200260200101819052508183610dd1919061212c565b92508080610dde9061215f565b915050610d7f565b5082945050505050919050565b5f80825f0151118015610e0a57506021825f015111155b610e12575f80fd5b5f80610e1d84611318565b915091505f825190506020821015610e3c57816020036101000a810490505b809350505050919050565b60605f825f015111610e57575f80fd5b5f80610e6284611318565b915091505f8167ffffffffffffffff811115610e8157610e80611497565b5b6040519080825280601f01601f191660200182016040528015610eb35781602001600182028036833780820191505090505b5090505f816020019050610ec884828561135d565b81945050505050919050565b5f805f5b6020811015610f4d57600881610eee91906121a6565b60ff60f81b858381518110610f0657610f05611d5a565b5b602001015160f81c60f81b167effffffffffffffffffffffffffffffffffffffffffffffffffffffffffffff1916901c821791508080610f459061215f565b915050610ed8565b5080915050919050565b60605f8203610f9d576040518060400160405280600181526020017f300000000000000000000000000000000000000000000000000000000000000081525090506110b0565b5f8290505f5b5f8214610fcc578080610fb59061215f565b915050600a82610fc59190612214565b9150610fa3565b5f8167ffffffffffffffff811115610fe757610fe6611497565b5b6040519080825280601f01601f1916602001820160405280156110195781602001600182028036833780820191505090505b5090505f8290508593505b5f84146110a857600a846110389190612244565b6030611044919061212c565b60f81b828261105290612274565b9250828151811061106657611065611d5a565b5b60200101907effffffffffffffffffffffffffffffffffffffffffffffffffffffffffffff191690815f1a905350600a846110a19190612214565b9350611024565b819450505050505b919050565b5f80825f0151036110c8575f90506110f7565b5f808360200151905080515f1a915060c060ff168260ff1610156110f0575f925050506110f7565b6001925050505b919050565b5f80825f01510361110f575f905061117e565b5f8061111e8460200151611183565b846020015161112d919061212c565b90505f845f01518560200151611143919061212c565b90505b80821015611177576111578261123f565b82611162919061212c565b9150828061116f9061215f565b935050611146565b8293505050505b919050565b5f8082515f1a9050608060ff168110156111a0575f91505061123a565b60b860ff168110806111c5575060c060ff1681101580156111c4575060f860ff1681105b5b156111d457600191505061123a565b60c060ff1681101561120f5760018060b86111ef919061229b565b60ff16826111fd91906122cf565b611207919061212c565b91505061123a565b60018060f861121e919061229b565b60ff168261122c91906122cf565b611236919061212c565b9150505b919050565b5f805f83515f1a9050608060ff1681101561125d576001915061130e565b60b860ff1681101561128c576001608060ff168261127b91906122cf565b611285919061212c565b915061130d565b60c060ff168110156112bc5760b78103600185019450806020036101000a8551046001820181019350505061130c565b60f860ff168110156112eb57600160c060ff16826112da91906122cf565b6112e4919061212c565b915061130b565b60f78103600185019450806020036101000a855104600182018101935050505b5b5b5b8192505050919050565b5f805f6113288460200151611183565b90505f81856020015161133b919061212c565b90505f82865f015161134d91906122cf565b9050818194509450505050915091565b5f8103156113f7575b602060ff1681106113b05782518252602060ff1683611385919061212c565b9250602060ff1682611397919061212c565b9150602060ff16816113a991906122cf565b9050611366565b5f8111156113f6575f600182602060ff166113cb91906122cf565b6101006113d89190612431565b6113e291906122cf565b905080198451168184511681811785525050505b5b505050565b60405180604001604052805f81526020015f81525090565b5f604051905090565b5f80fd5b5f80fd5b5f73ffffffffffffffffffffffffffffffffffffffff82169050919050565b5f61144e82611425565b9050919050565b61145e81611444565b8114611468575f80fd5b50565b5f8135905061147981611455565b92915050565b5f80fd5b5f80fd5b5f601f19601f8301169050919050565b7f4e487b71000000000000000000000000000000000000000000000000000000005f52604160045260245ffd5b6114cd82611487565b810181811067ffffffffffffffff821117156114ec576114eb611497565b5b80604052505050565b5f6114fe611414565b905061150a82826114c4565b919050565b5f67ffffffffffffffff82111561152957611528611497565b5b61153282611487565b9050602081019050919050565b828183375f83830152505050565b5f61155f61155a8461150f565b6114f5565b90508281526020810184848401111561157b5761157a611483565b5b61158684828561153f565b509392505050565b5f82601f8301126115a2576115a161147f565b5b81356115b284826020860161154d565b91505092915050565b5f805f606084860312156115d2576115d161141d565b5b5f6115df8682870161146b565b935050602084013567ffffffffffffffff811115611600576115ff611421565b5b61160c8682870161158e565b925050604084013567ffffffffffffffff81111561162d5761162c611421565b5b6116398682870161158e565b9150509250925092565b61164c81611444565b82525050565b5f6020820190506116655f830184611643565b92915050565b5f819050919050565b61167d8161166b565b82525050565b5f6020820190506116965f830184611674565b92915050565b5f602082840312156116b1576116b061141d565b5b5f6116be8482850161146b565b91505092915050565b5f81519050919050565b5f82825260208201905092915050565b5f5b838110156116fe5780820151818401526020810190506116e3565b5f8484015250505050565b5f611713826116c7565b61171d81856116d1565b935061172d8185602086016116e1565b61173681611487565b840191505092915050565b5f6040820190508181035f8301526117598185611709565b9050818103602083015261176d8184611709565b90509392505050565b5f8115159050919050565b61178a81611776565b82525050565b5f6020820190506117a35f830184611781565b92915050565b5f82825260208201905092915050565b7f6164647265737320616c726561647920726571756573746564000000000000005f82015250565b5f6117ed6019836117a9565b91506117f8826117b9565b602082019050919050565b5f6020820190508181035f83015261181a816117e1565b9050919050565b7f6164647265737320616c726561647920617070726f76656400000000000000005f82015250565b5f6118556018836117a9565b915061186082611821565b602082019050919050565b5f6020820190508181035f83015261188281611849565b9050919050565b7f656d707479207367785f7265706f7274000000000000000000000000000000005f82015250565b5f6118bd6010836117a9565b91506118c882611889565b602082019050919050565b5f6020820190508181035f8301526118ea816118b1565b9050919050565b7f656d707479206961735f736967000000000000000000000000000000000000005f82015250565b5f611925600d836117a9565b9150611930826118f1565b602082019050919050565b5f6020820190508181035f83015261195281611919565b9050919050565b7f4e487b71000000000000000000000000000000000000000000000000000000005f52602260045260245ffd5b5f600282049050600182168061199d57607f821691505b6020821081036119b0576119af611959565b5b50919050565b5f819050815f5260205f209050919050565b5f6020601f8301049050919050565b5f82821b905092915050565b5f60088302611a127fffffffffffffffffffffffffffffffffffffffffffffffffffffffffffffffff826119d7565b611a1c86836119d7565b95508019841693508086168417925050509392505050565b5f819050919050565b5f611a57611a52611a4d8461166b565b611a34565b61166b565b9050919050565b5f819050919050565b611a7083611a3d565b611a84611a7c82611a5e565b8484546119e3565b825550505050565b5f90565b611a98611a8c565b611aa3818484611a67565b505050565b5b81811015611ac657611abb5f82611a90565b600181019050611aa9565b5050565b601f821115611b0b57611adc816119b6565b611ae5846119c8565b81016020851015611af4578190505b611b08611b00856119c8565b830182611aa8565b50505b505050565b5f82821c905092915050565b5f611b2b5f1984600802611b10565b1980831691505092915050565b5f611b438383611b1c565b9150826002028217905092915050565b611b5c826116c7565b67ffffffffffffffff811115611b7557611b74611497565b5b611b7f8254611986565b611b8a828285611aca565b5f60209050601f831160018114611bbb575f8415611ba9578287015190505b611bb38582611b38565b865550611c1a565b601f198416611bc9866119b6565b5f5b82811015611bf057848901518255600182019150602085019450602081019050611bcb565b86831015611c0d5784890151611c09601f891682611b1c565b8355505b6001600288020188555050505b505050505050565b7f626f756e747920616c726561647920636c61696d6564000000000000000000005f82015250565b5f611c566016836117a9565b9150611c6182611c22565b602082019050919050565b5f6020820190508181035f830152611c8381611c4a565b9050919050565b7f61646472657373206e6f7420617070726f7665640000000000000000000000005f82015250565b5f611cbe6014836117a9565b9150611cc982611c8a565b602082019050919050565b5f6020820190508181035f830152611ceb81611cb2565b9050919050565b7f696e636f7272656374207369676e6174757265000000000000000000000000005f82015250565b5f611d266013836117a9565b9150611d3182611cf2565b602082019050919050565b5f6020820190508181035f830152611d5381611d1a565b9050919050565b7f4e487b71000000000000000000000000000000000000000000000000000000005f52603260045260245ffd5b7f626c6f636b206861736820646f6573206e6f74206d6174636820626c6f636b205f8201527f6e756d6265720000000000000000000000000000000000000000000000000000602082015250565b5f611de16026836117a9565b9150611dec82611d87565b604082019050919050565b5f6020820190508181035f830152611e0e81611dd5565b9050919050565b7f61646472657373206e6f742072657175657374656400000000000000000000005f82015250565b5f611e496015836117a9565b9150611e5482611e15565b602082019050919050565b5f6020820190508181035f830152611e7681611e3d565b9050919050565b5f81905092915050565b5f611e91826116c7565b611e9b8185611e7d565b9350611eab8185602086016116e1565b80840191505092915050565b5f81519050919050565b5f81905092915050565b5f611ed582611eb7565b611edf8185611ec1565b9350611eef8185602086016116e1565b80840191505092915050565b5f611f068286611e87565b9150611f128285611ecb565b9150611f1e8284611e87565b9150819050949350505050565b7f45434453413a20696e76616c6964207369676e6174757265202773272076616c5f8201527f7565000000000000000000000000000000000000000000000000000000000000602082015250565b5f611f856022836117a9565b9150611f9082611f2b565b604082019050919050565b5f6020820190508181035f830152611fb281611f79565b9050919050565b5f819050919050565b611fcb81611fb9565b82525050565b5f60ff82169050919050565b611fe681611fd1565b82525050565b5f608082019050611fff5f830187611fc2565b61200c6020830186611fdd565b6120196040830185611fc2565b6120266060830184611fc2565b95945050505050565b7f45434453413a20696e76616c6964207369676e617475726500000000000000005f82015250565b5f6120636018836117a9565b915061206e8261202f565b602082019050919050565b5f6020820190508181035f83015261209081612057565b9050919050565b7f45434453413a20696e76616c6964207369676e6174757265206c656e677468005f82015250565b5f6120cb601f836117a9565b91506120d682612097565b602082019050919050565b5f6020820190508181035f8301526120f8816120bf565b9050919050565b7f4e487b71000000000000000000000000000000000000000000000000000000005f52601160045260245ffd5b5f6121368261166b565b91506121418361166b565b9250828201905080821115612159576121586120ff565b5b92915050565b5f6121698261166b565b91507fffffffffffffffffffffffffffffffffffffffffffffffffffffffffffffffff820361219b5761219a6120ff565b5b600182019050919050565b5f6121b08261166b565b91506121bb8361166b565b92508282026121c98161166b565b915082820484148315176121e0576121df6120ff565b5b5092915050565b7f4e487b71000000000000000000000000000000000000000000000000000000005f52601260045260245ffd5b5f61221e8261166b565b91506122298361166b565b925082612239576122386121e7565b5b828204905092915050565b5f61224e8261166b565b91506122598361166b565b925082612269576122686121e7565b5b828206905092915050565b5f61227e8261166b565b91505f82036122905761228f6120ff565b5b600182039050919050565b5f6122a582611fd1565b91506122b083611fd1565b9250828203905060ff8111156122c9576122c86120ff565b5b92915050565b5f6122d98261166b565b91506122e48361166b565b92508282039050818111156122fc576122fb6120ff565b5b92915050565b5f8160011c9050919050565b5f808291508390505b600185111561235757808604811115612333576123326120ff565b5b60018516156123425780820291505b808102905061235085612302565b9450612317565b94509492505050565b5f8261236f576001905061242a565b8161237c575f905061242a565b8160018114612392576002811461239c576123cb565b600191505061242a565b60ff8411156123ae576123ad6120ff565b5b8360020a9150848211156123c5576123c46120ff565b5b5061242a565b5060208310610133831016604e8410600b84101617156124005782820a9050838111156123fb576123fa6120ff565b5b61242a565b61240d848484600161230e565b92509050818404811115612424576124236120ff565b5b81810290505b9392505050565b5f61243b8261166b565b91506124468361166b565b92506124737fffffffffffffffffffffffffffffffffffffffffffffffffffffffffffffffff8484612360565b90509291505056fea2646970667358221220c7f11ff9477d56db9b3e31618861338d307ca0c56b6202cb0b64ff46775ffbea64736f6c63430008140033",
  "immutableReferences": {},
  "source": "// SPDX-License-Identifier: UNLICENSED\npragma solidity >=0.5.10 <0.9.0;\n\nimport \"./RLPReader.sol\";\n\ncontract Honeypot {\n\n    using RLPReader for RLPReader.RLPItem;\n    using RLPReader for bytes;\n\n    struct EnclaveData {\n        bytes sgx_report;\n        bytes ias_sig;\n    }\n\n    address public owner;\n    uint public bounty;\n    bool public claimed;\n\n    mapping (address => bool) public enclaveRequested;\n    mapping (address => bool) public enclaveApproved;\n    mapping (address => EnclaveData) public enclaveData;\n\n\n    event BountyClaimed(address winner);\n\n\n    modifier onlyOwner() {\n        require(msg.sender == owner);\n        _;\n    }\n\n\n    constructor() payable public {\n        owner = msg.sender;\n        bounty = msg.value;\n    }\n\n    function submitEnclave(address enclaveAddr, bytes memory sgxReport, bytes memory iasSig) public {\n        require(!enclaveRequested[enclaveAddr], \"address already requested\");\n        require(!enclaveApproved[enclaveAddr], \"address already approved\");\n        require(sgxReport.length > 0, \"empty sgx_report\");\n        require(iasSig.length > 0, \"empty ias_sig\");\n\n        enclaveData[enclaveAddr] = EnclaveData(sgxReport, iasSig);\n        enclaveRequested[enclaveAddr] = true;\n    }\n\n    function approveEnclave(address enclaveAddr) public onlyOwner {\n        require(enclaveRequested[enclaveAddr], \"address not requested\");\n        require(!enclaveApproved[enclaveAddr], \"address already approved\");\n\n        enclaveRequested[enclaveAddr] = false;\n        enclaveApproved[enclaveAddr] = true;\n    }\n\n    function collectBounty(address enclaveAddr, bytes memory proofBlob, bytes memory sig) public {\n        require(!claimed, \"bounty already claimed\");\n        require(enclaveApproved[enclaveAddr], \"address not approved\");\n\n        bytes32 hash = hash_data(proofBlob);\n        address signer = recover(hash, sig);\n        require(signer == enclaveAddr, \"incorrect signature\");\n\n        RLPReader.RLPItem[] memory items = proofBlob.toRlpItem().toList();\n        uint blockNum = items[0].toUint();\n        bytes32 blockHash = toBytes32(items[1].toBytes());\n        require(blockhash(blockNum) == blockHash, \"block hash does not match block number\");\n\n        claimed = true;\n        payable(msg.sender).transfer(bounty);\n        emit BountyClaimed(msg.sender);\n    }\n\n    function hash_data(bytes memory data) internal pure returns (bytes32) {\n        bytes memory eth_prefix = '\\x19Ethereum Signed Message:\\n';\n        bytes memory packed = abi.encodePacked(eth_prefix,uint2str(data.length),data);\n        return keccak256(packed);\n    }\n\n    function recover(bytes32 hash, bytes memory signature) internal pure returns (address) {\n        if (signature.length == 65) {\n            bytes32 r;\n            bytes32 s;\n            uint8 v;\n            // ecrecover takes the signature parameters, and the only way to get them\n            // currently is to use assembly.\n            /// @solidity memory-safe-assembly\n            assembly {\n                r := mload(add(signature, 0x20))\n                s := mload(add(signature, 0x40))\n                v := byte(0, mload(add(signature, 0x60)))\n            }\n            if (uint256(s) > 0x7FFFFFFFFFFFFFFFFFFFFFFFFFFFFFFF5D576E7357A4501DDFE92F46681B20A0) {\n                revert(\"ECDSA: invalid signature 's' value\");\n            }\n            address signer = ecrecover(hash, v, r, s);\n            if (signer == address(0)) {\n                revert(\"ECDSA: invalid signature\");\n            }\n            return signer;\n        } else {\n            revert(\"ECDSA: invalid signature length\");\n        }\n    }\n\n    function uint2str( uint256 _i ) internal pure returns (string memory str) {\n        if (_i == 0)\n        {\n            return \"0\";\n        }\n        uint256 j = _i;\n        uint256 length;\n        while (j != 0)\n        {\n            length++;\n            j /= 10;\n        }\n        bytes memory bstr = new bytes(length);\n        uint256 k = length;\n        j = _i;\n        while (j != 0)\n        {\n            bstr[--k] = bytes1(uint8(48 + j % 10));\n            j /= 10;\n        }\n        str = string(bstr);\n    }\n\n    function toBytes32(bytes memory b) internal pure returns (bytes32) {\n        bytes32 out;\n        for (uint i = 0; i < 32; i++) {\n          out |= bytes32(b[i] & 0xFF) >> (i * 8);\n        }\n        return out;\n    }\n\n}",
  "sourcePath": "/~/blinderpp/chain/contracts/Honeypot.sol",
  "compiler": {
    "name": "solc",
    "version": "0.8.20+commit.a1b79de6.Emscripten.clang"
  },
  "schemaVersion": "3.4.4",
  "updatedAt": "2023-06-11T02:58:39.043Z",
  "devdoc": {
    "kind": "dev",
    "methods": {},
    "version": 1
  },
  "userdoc": {
    "kind": "user",
    "methods": {},
    "version": 1
  }
}