{
  "contractName": "Honeypot",
  "abi": [
    {
      "inputs": [],
      "stateMutability": "payable",
      "type": "constructor"
    },
    {
      "inputs": [],
      "name": "BadReportSignature",
      "type": "error"
    },
    {
      "anonymous": false,
      "inputs": [
        {
          "indexed": false,
          "internalType": "address",
          "name": "winner",
          "type": "address"
        }
      ],
      "name": "BountyClaimed",
      "type": "event"
    },
    {
      "inputs": [],
      "name": "bounty",
      "outputs": [
        {
          "internalType": "uint256",
          "name": "",
          "type": "uint256"
        }
      ],
      "stateMutability": "view",
      "type": "function"
    },
    {
      "inputs": [],
      "name": "claimed",
      "outputs": [
        {
          "internalType": "bool",
          "name": "",
          "type": "bool"
        }
      ],
      "stateMutability": "view",
      "type": "function"
    },
    {
      "inputs": [
        {
          "internalType": "address",
          "name": "",
          "type": "address"
        }
      ],
      "name": "enclaveApproved",
      "outputs": [
        {
          "internalType": "bool",
          "name": "",
          "type": "bool"
        }
      ],
      "stateMutability": "view",
      "type": "function"
    },
    {
      "inputs": [],
      "name": "intelRootExponent",
      "outputs": [
        {
          "internalType": "bytes",
          "name": "",
          "type": "bytes"
        }
      ],
      "stateMutability": "view",
      "type": "function"
    },
    {
      "inputs": [],
      "name": "intelRootModulus",
      "outputs": [
        {
          "internalType": "bytes",
          "name": "",
          "type": "bytes"
        }
      ],
      "stateMutability": "view",
      "type": "function"
    },
    {
      "inputs": [],
      "name": "owner",
      "outputs": [
        {
          "internalType": "address",
          "name": "",
          "type": "address"
        }
      ],
      "stateMutability": "view",
      "type": "function"
    },
    {
      "inputs": [
        {
          "internalType": "bytes",
          "name": "report",
          "type": "bytes"
        },
        {
          "internalType": "bytes",
          "name": "sig",
          "type": "bytes"
        },
        {
          "internalType": "bytes",
          "name": "cert",
          "type": "bytes"
        },
        {
          "internalType": "bytes32",
          "name": "mrenclave",
          "type": "bytes32"
        },
        {
          "internalType": "bytes32",
          "name": "mrsigner",
          "type": "bytes32"
        }
      ],
      "name": "submitEnclave",
      "outputs": [],
      "stateMutability": "nonpayable",
      "type": "function"
    },
    {
      "inputs": [
        {
          "internalType": "address",
          "name": "enclaveAddr",
          "type": "address"
        },
        {
          "internalType": "bytes",
          "name": "proofBlob",
          "type": "bytes"
        },
        {
          "internalType": "bytes",
          "name": "sig",
          "type": "bytes"
        }
      ],
      "name": "collectBounty",
      "outputs": [],
      "stateMutability": "nonpayable",
      "type": "function"
    }
  ],
  "bytecode": "0x6080604052335f806101000a81548173ffffffffffffffffffffffffffffffffffffffff021916908373ffffffffffffffffffffffffffffffffffffffff16021790555034600181905550613842806100575f395ff3fe608060405234801561000f575f80fd5b5060043610610086575f3560e01c8063a20c890911610059578063a20c890914610100578063adb2ca501461011e578063bb9e79a81461014e578063e834a8341461016a57610086565b8063178392321461008a578063728fba37146100a65780638da5cb5b146100c4578063943dfef1146100e2575b5f80fd5b6100a4600480360381019061009f919061216a565b610188565b005b6100ae6102f8565b6040516100bb91906122b7565b60405180910390f35b6100cc610331565b6040516100d99190612316565b60405180910390f35b6100ea610354565b6040516100f79190612347565b60405180910390f35b61010861035a565b60405161011591906122b7565b60405180910390f35b6101386004803603810190610133919061238a565b610379565b60405161014591906123cf565b60405180910390f35b610168600480360381019061016391906123e8565b610396565b005b610172610642565b60405161017f91906123cf565b60405180910390f35b5f806101e585604051806101a00160405280610180815260200161368d61018091396040518060400160405280600381526020017f0100010000000000000000000000000000000000000000000000000000000000815250610654565b915091505f6101fa8a8a8a8a87878b8b6108be565b90505f81610207906124ca565b60601c905060035f8273ffffffffffffffffffffffffffffffffffffffff1673ffffffffffffffffffffffffffffffffffffffff1681526020019081526020015f205f9054906101000a900460ff1615610296576040517f08c379a000000000000000000000000000000000000000000000000000000000815260040161028d9061258a565b60405180910390fd5b600160035f8373ffffffffffffffffffffffffffffffffffffffff1673ffffffffffffffffffffffffffffffffffffffff1681526020019081526020015f205f6101000a81548160ff0219169083151502179055505050505050505050505050565b6040518060400160405280600381526020017f010001000000000000000000000000000000000000000000000000000000000081525081565b5f8054906101000a900473ffffffffffffffffffffffffffffffffffffffff1681565b60015481565b604051806101a00160405280610180815260200161368d610180913981565b6003602052805f5260405f205f915054906101000a900460ff1681565b60025f9054906101000a900460ff16156103e5576040517f08c379a00000000000000000000000000000000000000000000000000000000081526004016103dc906125f2565b60405180910390fd5b60035f8473ffffffffffffffffffffffffffffffffffffffff1673ffffffffffffffffffffffffffffffffffffffff1681526020019081526020015f205f9054906101000a900460ff1661046e576040517f08c379a00000000000000000000000000000000000000000000000000000000081526004016104659061265a565b60405180910390fd5b5f61047883610970565b90505f61048582846109eb565b90508473ffffffffffffffffffffffffffffffffffffffff168173ffffffffffffffffffffffffffffffffffffffff16146104f5576040517f08c379a00000000000000000000000000000000000000000000000000000000081526004016104ec906126c2565b60405180910390fd5b5f61050761050286610b7e565b610bab565b90505f61052d825f815181106105205761051f6126e0565b5b6020026020010151610cba565b90505f61055c6105578460018151811061054a576105496126e0565b5b6020026020010151610d0e565b610d9b565b9050808240146105a1576040517f08c379a00000000000000000000000000000000000000000000000000000000081526004016105989061277d565b60405180910390fd5b600160025f6101000a81548160ff0219169083151502179055503373ffffffffffffffffffffffffffffffffffffffff166108fc60015490811502906040515f60405180830381858888f19350505050158015610600573d5f803e3d5ffd5b507fe0943793fa13cf32cb5d88a07aac8f65c413c3239fe582de3cadf3426095b37f336040516106309190612316565b60405180910390a15050505050505050565b60025f9054906101000a900460ff1681565b6060805f61066186610e1e565b90505f6106778288610e3090919063ffffffff16565b90505f61068d8289610ede90919063ffffffff16565b90505f6106a3838a610f2c90919063ffffffff16565b90505f6106b9828b610f2c90919063ffffffff16565b90505f6106cf828c610f5390919063ffffffff16565b90506106dd84828c8c610fa1565b61071c576040517f08c379a0000000000000000000000000000000000000000000000000000000008152600401610713906127e5565b60405180910390fd5b5f610730868d610e3090919063ffffffff16565b905060a060f81b8c6107418361103c565b81518110610752576107516126e0565b5b602001015160f81c60f81b7effffffffffffffffffffffffffffffffffffffffffffffffffffffffffffff19160361079a57610797818d610f2c90919063ffffffff16565b90505b6107ad818d610f2c90919063ffffffff16565b90506107c2818d610f2c90919063ffffffff16565b90506107d7818d610f2c90919063ffffffff16565b90506107ec818d610f2c90919063ffffffff16565b9050610801818d610f2c90919063ffffffff16565b9050610816818d610e3090919063ffffffff16565b905061082b818d610f2c90919063ffffffff16565b90505f610841828e61105190919063ffffffff16565b90505f61084d82610e1e565b90506108628183610e3090919063ffffffff16565b90505f6108788284610f5390919063ffffffff16565b905061088d8284610f2c90919063ffffffff16565b91505f6108a38385610f5390919063ffffffff16565b905081819c509c505050505050505050505050935093915050565b60605f8061090e8b8b8080601f0160208091040260200160405190810160405280939291908181526020018383808284375f81840152601f19601f8201169050808301925050505050505061119e565b9150915061091f818a8a8a8a61123e565b610955576040517ffc69971c00000000000000000000000000000000000000000000000000000000815260040160405180910390fd5b61096082868661131d565b9250505098975050505050505050565b5f806040518060400160405280601a81526020017f19457468657265756d205369676e6564204d6573736167653a0a00000000000081525090505f816109b685516113b2565b856040516020016109c993929190612881565b6040516020818303038152906040529050808051906020012092505050919050565b5f6041825103610b3d575f805f602085015192506040850151915060608501515f1a90507f7fffffffffffffffffffffffffffffff5d576e7357a4501ddfe92f46681b20a0825f1c1115610a74576040517f08c379a0000000000000000000000000000000000000000000000000000000008152600401610a6b90612921565b60405180910390fd5b5f6001878386866040515f8152602001604052604051610a979493929190612969565b6020604051602081039080840390855afa158015610ab7573d5f803e3d5ffd5b5050506020604051035190505f73ffffffffffffffffffffffffffffffffffffffff168173ffffffffffffffffffffffffffffffffffffffff1603610b31576040517f08c379a0000000000000000000000000000000000000000000000000000000008152600401610b28906129f6565b60405180910390fd5b80945050505050610b78565b6040517f08c379a0000000000000000000000000000000000000000000000000000000008152600401610b6f90612a5e565b60405180910390fd5b92915050565b610b86611f30565b5f60208301905060405180604001604052808451815260200182815250915050919050565b6060610bb682611510565b610bbe575f80fd5b5f610bc883611557565b90505f8167ffffffffffffffff811115610be557610be4612013565b5b604051908082528060200260200182016040528015610c1e57816020015b610c0b611f30565b815260200190600190039081610c035790505b5090505f610c2f85602001516115de565b8560200151610c3e9190612aa9565b90505f805f90505b84811015610cad57610c578361169a565b9150604051806040016040528083815260200184815250848281518110610c8157610c806126e0565b5b60200260200101819052508183610c989190612aa9565b92508080610ca590612adc565b915050610c46565b5082945050505050919050565b5f80825f0151118015610cd157506021825f015111155b610cd9575f80fd5b5f80610ce484611773565b915091505f825190506020821015610d0357816020036101000a810490505b809350505050919050565b60605f825f015111610d1e575f80fd5b5f80610d2984611773565b915091505f8167ffffffffffffffff811115610d4857610d47612013565b5b6040519080825280601f01601f191660200182016040528015610d7a5781602001600182028036833780820191505090505b5090505f816020019050610d8f8482856117b8565b81945050505050919050565b5f805f5b6020811015610e1457600881610db59190612b23565b60ff60f81b858381518110610dcd57610dcc6126e0565b5b602001015160f81c60f81b167effffffffffffffffffffffffffffffffffffffffffffffffffffffffffffff1916901c821791508080610e0c90612adc565b915050610d9f565b5080915050919050565b5f610e29825f611857565b9050919050565b5f602060f81b602060f81b84610e458561103c565b81518110610e5657610e556126e0565b5b602001015160f81c60f81b167effffffffffffffffffffffffffffffffffffffffffffffffffffffffffffff191614610ec4576040517f08c379a0000000000000000000000000000000000000000000000000000000008152600401610ebb90612bae565b60405180910390fd5b610ed683610ed184611a7c565b611857565b905092915050565b6060610f24610eec8361103c565b610ef58461103c565b6001610f0086611a95565b610f0a9190612aa9565b610f149190612bcc565b85611aae9092919063ffffffff16565b905092915050565b5f610f4b836001610f3c85611a95565b610f469190612aa9565b611857565b905092915050565b6060610f99610f6183611a7c565b610f6a84611a7c565b6001610f7586611a95565b610f7f9190612aa9565b610f899190612bcc565b85611aae9092919063ffffffff16565b905092915050565b5f805f610faf858588611b40565b915091505f610fd460208351610fc59190612bcc565b83611b5a90919063ffffffff16565b905082801561102f5750600288604051610fee9190612bff565b602060405180830381855afa158015611009573d5f803e3d5ffd5b5050506040513d601f19601f8201168201806040525081019061102c9190612c29565b81145b9350505050949350505050565b5f8169ffffffffffffffffffff169050919050565b6060600360f81b836110628461103c565b81518110611073576110726126e0565b5b602001015160f81c60f81b7effffffffffffffffffffffffffffffffffffffffffffffffffffffffffffff1916146110e0576040517f08c379a00000000000000000000000000000000000000000000000000000000081526004016110d790612c9e565b60405180910390fd5b5f60f81b836110ee84611a7c565b815181106110ff576110fe6126e0565b5b602001015160f81c60f81b7effffffffffffffffffffffffffffffffffffffffffffffffffffffffffffff191614611135575f80fd5b5f61113f83611a7c565b600161114a85611a95565b6111549190612aa9565b61115e9190612bcc565b9050611195600161116e85611a7c565b6111789190612aa9565b6001836111859190612bcc565b86611aae9092919063ffffffff16565b91505092915050565b6111a6611f48565b60605f805f805f805f808a8060200190518101906111c49190612d2a565b975097509750975097509750975097505f6111de82611b83565b90506040518061010001604052808a8152602001898152602001888152602001878152602001868152602001858152602001848152602001828152509a506112258b611ce2565b9950818b60e00181905250505050505050505050915091565b5f805f61128f858589898080601f0160208091040260200160405190810160405280939291908181526020018383808284375f81840152601f19601f82011690508083019250505050505050611b40565b915091505f6112b4602083516112a59190612bcc565b83611b5a90919063ffffffff16565b905082801561130f57506002896040516112ce9190612bff565b602060405180830381855afa1580156112e9573d5f803e3d5ffd5b5050506040513d601f19601f8201168201806040525081019061130c9190612c29565b81145b935050505095945050505050565b60605f8460a001518051906020012090505f8560e0015190506101b081511461134957611348612ebb565b5b5f61135e607083611b5a90919063ffffffff16565b905085811461136b575f80fd5b5f61138060b084611b5a90919063ffffffff16565b905085811461138d575f80fd5b6113a5610170604085611aae9092919063ffffffff16565b9450505050509392505050565b60605f82036113f8576040518060400160405280600181526020017f3000000000000000000000000000000000000000000000000000000000000000815250905061150b565b5f8290505f5b5f821461142757808061141090612adc565b915050600a826114209190612f15565b91506113fe565b5f8167ffffffffffffffff81111561144257611441612013565b5b6040519080825280601f01601f1916602001820160405280156114745781602001600182028036833780820191505090505b5090505f8290508593505b5f841461150357600a846114939190612f45565b603061149f9190612aa9565b60f81b82826114ad90612f75565b925082815181106114c1576114c06126e0565b5b60200101907effffffffffffffffffffffffffffffffffffffffffffffffffffffffffffff191690815f1a905350600a846114fc9190612f15565b935061147f565b819450505050505b919050565b5f80825f015103611523575f9050611552565b5f808360200151905080515f1a915060c060ff168260ff16101561154b575f92505050611552565b6001925050505b919050565b5f80825f01510361156a575f90506115d9565b5f8061157984602001516115de565b84602001516115889190612aa9565b90505f845f0151856020015161159e9190612aa9565b90505b808210156115d2576115b28261169a565b826115bd9190612aa9565b915082806115ca90612adc565b9350506115a1565b8293505050505b919050565b5f8082515f1a9050608060ff168110156115fb575f915050611695565b60b860ff16811080611620575060c060ff16811015801561161f575060f860ff1681105b5b1561162f576001915050611695565b60c060ff1681101561166a5760018060b861164a9190612f9c565b60ff16826116589190612bcc565b6116629190612aa9565b915050611695565b60018060f86116799190612f9c565b60ff16826116879190612bcc565b6116919190612aa9565b9150505b919050565b5f805f83515f1a9050608060ff168110156116b85760019150611769565b60b860ff168110156116e7576001608060ff16826116d69190612bcc565b6116e09190612aa9565b9150611768565b60c060ff168110156117175760b78103600185019450806020036101000a85510460018201810193505050611767565b60f860ff1681101561174657600160c060ff16826117359190612bcc565b61173f9190612aa9565b9150611766565b60f78103600185019450806020036101000a855104600182018101935050505b5b5b5b8192505050919050565b5f805f61178384602001516115de565b90505f8185602001516117969190612aa9565b90505f82865f01516117a89190612bcc565b9050818194509450505050915091565b5f810315611852575b602060ff16811061180b5782518252602060ff16836117e09190612aa9565b9250602060ff16826117f29190612aa9565b9150602060ff16816118049190612bcc565b90506117c1565b5f811115611851575f600182602060ff166118269190612bcc565b61010061183391906130ff565b61183d9190612bcc565b905080198451168184511681811785525050505b5b505050565b5f805f805f60f81b608060f81b876001886118729190612aa9565b81518110611883576118826126e0565b5b602001015160f81c60f81b167effffffffffffffffffffffffffffffffffffffffffffffffffffffffffffff19160361192257856001866118c49190612aa9565b815181106118d5576118d46126e0565b5b602001015160f81c60f81b60f81c60ff1692506002856118f59190612aa9565b91506001838369ffffffffffffffffffff166119119190612aa9565b61191b9190612bcc565b9050611a4e565b5f607f60f81b876001886119369190612aa9565b81518110611947576119466126e0565b5b602001015160f81c60f81b1660f81c905060018160ff160361198c576119826002876119739190612aa9565b88611d7690919063ffffffff16565b60ff169350611a09565b60028160ff16036119c1576119b66002876119a79190612aa9565b88611da090919063ffffffff16565b61ffff169350611a08565b60088160206119d09190612f9c565b6119da9190613149565b60ff16611a016002886119ed9190612aa9565b8360ff168a611dcd9092919063ffffffff16565b901c5f1c93505b5b8060ff16600287611a1a9190612aa9565b611a249190612aa9565b92506001848469ffffffffffffffffffff16611a409190612aa9565b611a4a9190612bcc565b9150505b611a71858369ffffffffffffffffffff168369ffffffffffffffffffff16611e12565b935050505092915050565b5f605082901c69ffffffffffffffffffff169050919050565b5f60a082901c69ffffffffffffffffffff169050919050565b606083518284611abe9190612aa9565b1115611ac8575f80fd5b5f8267ffffffffffffffff811115611ae357611ae2612013565b5b6040519080825280601f01601f191660200182016040528015611b155781602001600182028036833780820191505090505b5090505f806020830191508560208801019050611b33828287611e2f565b8293505050509392505050565b5f6060611b4e838587611e92565b91509150935093915050565b5f8251602083611b6a9190612aa9565b1115611b74575f80fd5b81602084010151905092915050565b60605f825103611ba35760405180602001604052805f8152509050611cdd565b5f60405180606001604052806040815260200161364d6040913990505f600360028551611bd09190612aa9565b611bda9190612f15565b6004611be69190612b23565b67ffffffffffffffff811115611bff57611bfe612013565b5b6040519080825280601f01601f191660200182016040528015611c315781602001600182028036833780820191505090505b509050600182016020820185865187015b80821015611c9d576003820191508151603f8160121c168501518453600184019350603f81600c1c168501518453600184019350603f8160061c168501518453600184019350603f8116850151845360018401935050611c42565b5050600386510660018114611cb95760028114611ccc57611cd4565b603d6001830353603d6002830353611cd4565b603d60018303535b50505080925050505b919050565b6060815f0151826020015183604001518460600151604051602001611d0a94939291906132f7565b60405160208183030381529060405282608001518360a001518460c001518560e00151604051602001611d409493929190613527565b604051602081830303815290604052604051602001611d609291906135a6565b6040516020818303038152906040529050919050565b5f828281518110611d8a57611d896126e0565b5b602001015160f81c60f81b60f81c905092915050565b5f8251600283611db09190612aa9565b1115611dba575f80fd5b61ffff8260028501015116905092915050565b5f6020821115611ddb575f80fd5b83518284611de99190612aa9565b1115611df3575f80fd5b6001826020036101000a03198084602087010151169150509392505050565b5f605083901b8417935060a082901b841793508390509392505050565b5b60208110611e6e5781518352602083611e499190612aa9565b9250602082611e589190612aa9565b9150602081611e679190612bcc565b9050611e30565b5f6001826020036101000a0390508019835116818551168181178652505050505050565b5f60605f855185518551888888604051602001611eb4969594939291906135e9565b6040516020818303038152906040529050835167ffffffffffffffff811115611ee057611edf612013565b5b6040519080825280601f01601f191660200182016040528015611f125781602001600182028036833780820191505090505b50915083516020830182516020840160055afa925050935093915050565b60405180604001604052805f81526020015f81525090565b60405180610100016040528060608152602001606081526020016060815260200160608152602001606081526020016060815260200160608152602001606081525090565b5f604051905090565b5f80fd5b5f80fd5b5f80fd5b5f80fd5b5f80fd5b5f8083601f840112611fbf57611fbe611f9e565b5b8235905067ffffffffffffffff811115611fdc57611fdb611fa2565b5b602083019150836001820283011115611ff857611ff7611fa6565b5b9250929050565b5f80fd5b5f601f19601f8301169050919050565b7f4e487b71000000000000000000000000000000000000000000000000000000005f52604160045260245ffd5b61204982612003565b810181811067ffffffffffffffff8211171561206857612067612013565b5b80604052505050565b5f61207a611f8d565b90506120868282612040565b919050565b5f67ffffffffffffffff8211156120a5576120a4612013565b5b6120ae82612003565b9050602081019050919050565b828183375f83830152505050565b5f6120db6120d68461208b565b612071565b9050828152602081018484840111156120f7576120f6611fff565b5b6121028482856120bb565b509392505050565b5f82601f83011261211e5761211d611f9e565b5b813561212e8482602086016120c9565b91505092915050565b5f819050919050565b61214981612137565b8114612153575f80fd5b50565b5f8135905061216481612140565b92915050565b5f805f805f805f60a0888a03121561218557612184611f96565b5b5f88013567ffffffffffffffff8111156121a2576121a1611f9a565b5b6121ae8a828b01611faa565b9750975050602088013567ffffffffffffffff8111156121d1576121d0611f9a565b5b6121dd8a828b01611faa565b9550955050604088013567ffffffffffffffff811115612200576121ff611f9a565b5b61220c8a828b0161210a565b935050606061221d8a828b01612156565b925050608061222e8a828b01612156565b91505092959891949750929550565b5f81519050919050565b5f82825260208201905092915050565b5f5b83811015612274578082015181840152602081019050612259565b5f8484015250505050565b5f6122898261223d565b6122938185612247565b93506122a3818560208601612257565b6122ac81612003565b840191505092915050565b5f6020820190508181035f8301526122cf818461227f565b905092915050565b5f73ffffffffffffffffffffffffffffffffffffffff82169050919050565b5f612300826122d7565b9050919050565b612310816122f6565b82525050565b5f6020820190506123295f830184612307565b92915050565b5f819050919050565b6123418161232f565b82525050565b5f60208201905061235a5f830184612338565b92915050565b612369816122f6565b8114612373575f80fd5b50565b5f8135905061238481612360565b92915050565b5f6020828403121561239f5761239e611f96565b5b5f6123ac84828501612376565b91505092915050565b5f8115159050919050565b6123c9816123b5565b82525050565b5f6020820190506123e25f8301846123c0565b92915050565b5f805f606084860312156123ff576123fe611f96565b5b5f61240c86828701612376565b935050602084013567ffffffffffffffff81111561242d5761242c611f9a565b5b6124398682870161210a565b925050604084013567ffffffffffffffff81111561245a57612459611f9a565b5b6124668682870161210a565b9150509250925092565b5f819050602082019050919050565b5f7fffffffffffffffffffffffffffffffffffffffff00000000000000000000000082169050919050565b5f6124b5825161247f565b80915050919050565b5f82821b905092915050565b5f6124d48261223d565b826124de84612470565b90506124e9816124aa565b92506014821015612529576125247fffffffffffffffffffffffffffffffffffffffff000000000000000000000000836014036008026124be565b831692505b5050919050565b5f82825260208201905092915050565b7f6164647265737320616c726561647920617070726f76656400000000000000005f82015250565b5f612574601883612530565b915061257f82612540565b602082019050919050565b5f6020820190508181035f8301526125a181612568565b9050919050565b7f626f756e747920616c726561647920636c61696d6564000000000000000000005f82015250565b5f6125dc601683612530565b91506125e7826125a8565b602082019050919050565b5f6020820190508181035f830152612609816125d0565b9050919050565b7f61646472657373206e6f7420617070726f7665640000000000000000000000005f82015250565b5f612644601483612530565b915061264f82612610565b602082019050919050565b5f6020820190508181035f83015261267181612638565b9050919050565b7f696e636f7272656374207369676e6174757265000000000000000000000000005f82015250565b5f6126ac601383612530565b91506126b782612678565b602082019050919050565b5f6020820190508181035f8301526126d9816126a0565b9050919050565b7f4e487b71000000000000000000000000000000000000000000000000000000005f52603260045260245ffd5b7f626c6f636b206861736820646f6573206e6f74206d6174636820626c6f636b205f8201527f6e756d6265720000000000000000000000000000000000000000000000000000602082015250565b5f612767602683612530565b91506127728261270d565b604082019050919050565b5f6020820190508181035f8301526127948161275b565b9050919050565b7f7665726966794368696c6443657274206661696c0000000000000000000000005f82015250565b5f6127cf601483612530565b91506127da8261279b565b602082019050919050565b5f6020820190508181035f8301526127fc816127c3565b9050919050565b5f81905092915050565b5f6128178261223d565b6128218185612803565b9350612831818560208601612257565b80840191505092915050565b5f81519050919050565b5f81905092915050565b5f61285b8261283d565b6128658185612847565b9350612875818560208601612257565b80840191505092915050565b5f61288c828661280d565b91506128988285612851565b91506128a4828461280d565b9150819050949350505050565b7f45434453413a20696e76616c6964207369676e6174757265202773272076616c5f8201527f7565000000000000000000000000000000000000000000000000000000000000602082015250565b5f61290b602283612530565b9150612916826128b1565b604082019050919050565b5f6020820190508181035f830152612938816128ff565b9050919050565b61294881612137565b82525050565b5f60ff82169050919050565b6129638161294e565b82525050565b5f60808201905061297c5f83018761293f565b612989602083018661295a565b612996604083018561293f565b6129a3606083018461293f565b95945050505050565b7f45434453413a20696e76616c6964207369676e617475726500000000000000005f82015250565b5f6129e0601883612530565b91506129eb826129ac565b602082019050919050565b5f6020820190508181035f830152612a0d816129d4565b9050919050565b7f45434453413a20696e76616c6964207369676e6174757265206c656e677468005f82015250565b5f612a48601f83612530565b9150612a5382612a14565b602082019050919050565b5f6020820190508181035f830152612a7581612a3c565b9050919050565b7f4e487b71000000000000000000000000000000000000000000000000000000005f52601160045260245ffd5b5f612ab38261232f565b9150612abe8361232f565b9250828201905080821115612ad657612ad5612a7c565b5b92915050565b5f612ae68261232f565b91507fffffffffffffffffffffffffffffffffffffffffffffffffffffffffffffffff8203612b1857612b17612a7c565b5b600182019050919050565b5f612b2d8261232f565b9150612b388361232f565b9250828202612b468161232f565b91508282048414831517612b5d57612b5c612a7c565b5b5092915050565b7f4e6f74206120636f6e73747275637465642074797065000000000000000000005f82015250565b5f612b98601683612530565b9150612ba382612b64565b602082019050919050565b5f6020820190508181035f830152612bc581612b8c565b9050919050565b5f612bd68261232f565b9150612be18361232f565b9250828203905081811115612bf957612bf8612a7c565b5b92915050565b5f612c0a828461280d565b915081905092915050565b5f81519050612c2381612140565b92915050565b5f60208284031215612c3e57612c3d611f96565b5b5f612c4b84828501612c15565b91505092915050565b7f4e6f7420747970652042495420535452494e47000000000000000000000000005f82015250565b5f612c88601383612530565b9150612c9382612c54565b602082019050919050565b5f6020820190508181035f830152612cb581612c7c565b9050919050565b5f612cce612cc98461208b565b612071565b905082815260208101848484011115612cea57612ce9611fff565b5b612cf5848285612257565b509392505050565b5f82601f830112612d1157612d10611f9e565b5b8151612d21848260208601612cbc565b91505092915050565b5f805f805f805f80610100898b031215612d4757612d46611f96565b5b5f89015167ffffffffffffffff811115612d6457612d63611f9a565b5b612d708b828c01612cfd565b985050602089015167ffffffffffffffff811115612d9157612d90611f9a565b5b612d9d8b828c01612cfd565b975050604089015167ffffffffffffffff811115612dbe57612dbd611f9a565b5b612dca8b828c01612cfd565b965050606089015167ffffffffffffffff811115612deb57612dea611f9a565b5b612df78b828c01612cfd565b955050608089015167ffffffffffffffff811115612e1857612e17611f9a565b5b612e248b828c01612cfd565b94505060a089015167ffffffffffffffff811115612e4557612e44611f9a565b5b612e518b828c01612cfd565b93505060c089015167ffffffffffffffff811115612e7257612e71611f9a565b5b612e7e8b828c01612cfd565b92505060e089015167ffffffffffffffff811115612e9f57612e9e611f9a565b5b612eab8b828c01612cfd565b9150509295985092959890939650565b7f4e487b71000000000000000000000000000000000000000000000000000000005f52600160045260245ffd5b7f4e487b71000000000000000000000000000000000000000000000000000000005f52601260045260245ffd5b5f612f1f8261232f565b9150612f2a8361232f565b925082612f3a57612f39612ee8565b5b828204905092915050565b5f612f4f8261232f565b9150612f5a8361232f565b925082612f6a57612f69612ee8565b5b828206905092915050565b5f612f7f8261232f565b91505f8203612f9157612f90612a7c565b5b600182039050919050565b5f612fa68261294e565b9150612fb18361294e565b9250828203905060ff811115612fca57612fc9612a7c565b5b92915050565b5f8160011c9050919050565b5f808291508390505b60018511156130255780860481111561300157613000612a7c565b5b60018516156130105780820291505b808102905061301e85612fd0565b9450612fe5565b94509492505050565b5f8261303d57600190506130f8565b8161304a575f90506130f8565b8160018114613060576002811461306a57613099565b60019150506130f8565b60ff84111561307c5761307b612a7c565b5b8360020a91508482111561309357613092612a7c565b5b506130f8565b5060208310610133831016604e8410600b84101617156130ce5782820a9050838111156130c9576130c8612a7c565b5b6130f8565b6130db8484846001612fdc565b925090508184048111156130f2576130f1612a7c565b5b81810290505b9392505050565b5f6131098261232f565b91506131148361232f565b92506131417fffffffffffffffffffffffffffffffffffffffffffffffffffffffffffffffff848461302e565b905092915050565b5f6131538261294e565b915061315e8361294e565b925082820261316c8161294e565b915080821461317e5761317d612a7c565b5b5092915050565b7f7b000000000000000000000000000000000000000000000000000000000000005f82015250565b5f6131b9600183612847565b91506131c482613185565b600182019050919050565b7f226964223a2200000000000000000000000000000000000000000000000000005f82015250565b5f613203600683612847565b915061320e826131cf565b600682019050919050565b7f222c2274696d657374616d70223a2200000000000000000000000000000000005f82015250565b5f61324d600f83612847565b915061325882613219565b600f82019050919050565b7f222c2276657273696f6e223a00000000000000000000000000000000000000005f82015250565b5f613297600c83612847565b91506132a282613263565b600c82019050919050565b7f2c2261647669736f727955524c223a22000000000000000000000000000000005f82015250565b5f6132e1601083612847565b91506132ec826132ad565b601082019050919050565b5f613301826131ad565b915061330c826131f7565b9150613318828761280d565b915061332382613241565b915061332f828661280d565b915061333a8261328b565b9150613346828561280d565b9150613351826132d5565b915061335d828461280d565b915081905095945050505050565b7f222c2261647669736f7279494473223a000000000000000000000000000000005f82015250565b5f61339f601083612847565b91506133aa8261336b565b601082019050919050565b7f2c22697376456e636c61766551756f7465537461747573223a220000000000005f82015250565b5f6133e9601a83612847565b91506133f4826133b5565b601a82019050919050565b7f222c22706c6174666f726d496e666f426c6f62223a22000000000000000000005f82015250565b5f613433601683612847565b915061343e826133ff565b601682019050919050565b7f222c22697376456e636c61766551756f7465426f6479223a22000000000000005f82015250565b5f61347d601983612847565b915061348882613449565b601982019050919050565b7f22000000000000000000000000000000000000000000000000000000000000005f82015250565b5f6134c7600183612847565b91506134d282613493565b600182019050919050565b7f7d000000000000000000000000000000000000000000000000000000000000005f82015250565b5f613511600183612847565b915061351c826134dd565b600182019050919050565b5f61353182613393565b915061353d828761280d565b9150613548826133dd565b9150613554828661280d565b915061355f82613427565b915061356b828561280d565b915061357682613471565b9150613582828461280d565b915061358d826134bb565b915061359882613505565b915081905095945050505050565b5f6135b1828561280d565b91506135bd828461280d565b91508190509392505050565b5f819050919050565b6135e36135de8261232f565b6135c9565b82525050565b5f6135f482896135d2565b60208201915061360482886135d2565b60208201915061361482876135d2565b602082019150613624828661280d565b9150613630828561280d565b915061363c828461280d565b915081905097965050505050505056fe4142434445464748494a4b4c4d4e4f505152535455565758595a6162636465666768696a6b6c6d6e6f707172737475767778797a303132333435363738392b2f9f3c647eb5773cbb512d2732c0d7415ebb55a0fa9ede2e649199e6821db910d53177370977466a6a5e4786ccd2ddebd4149d6a2f6325529dd10cc98737b0779c1a07e29c47a1ae004948476c489f45a5a15d7ac8ecc6acc645adb43d87679df59c093bc5a2e9696c5478541b979e754b573914be55d32ff4c09ddf27219934cd990527b3f92ed78fbf29246abecb71240ef39c2d7107b447545a7ffb10eb060a68a98580219e36910952683892d6a5e2a80803193e407531404e36b315623799aa825074409754a2dfe8f5afd5fe631e1fc2af3808906f28a790d9dd9fe060939b125790c5805d037df56a99531b96de69de33ed226cc1207d1042b5c9ab7f404fc711c0fe4769fb9578b1dc0ec469ea1a25e0ff9914886ef2699b235bb4847dd6ff40b606e6170793c2fb98b314587f9cfd257362dfeab10b3bd2d97673a1a4bd44c453aaf47fc1f2d3d0f384f74a06f89c089f0da6cdb7fceee8c9821a8e54f25c0416d18c46839a5f8012fbdd3dc74d256279adc2c0d55aff6f0622425d1ba2646970667358221220e35b93ca0eafe180fc7c7fb2f3fdb60a80692b76f6dd99e522303144a6c6dbcb64736f6c63430008140033",
  "immutableReferences": {},
  "source": "// SPDX-License-Identifier: UNLICENSED\npragma solidity >=0.5.10 <0.9.0;\n\nimport \"./RLPReader.sol\";\nimport { X509Verifier } from \"./rave/X509Verifier.sol\";\nimport \"./rave/RemoteAttestation.sol\";\n\ncontract Honeypot {\n\n    using RLPReader for RLPReader.RLPItem;\n    using RLPReader for bytes;\n\n    address public owner;\n    uint public bounty;\n    bool public claimed;\n\n    mapping (address => bool) public enclaveApproved;\n\n    event BountyClaimed(address winner);\n\n    bytes public constant intelRootModulus = hex\"9F3C647EB5773CBB512D2732C0D7415EBB55A0FA9EDE2E649199E6821DB910D53177370977466A6A5E4786CCD2DDEBD4149D6A2F6325529DD10CC98737B0779C1A07E29C47A1AE004948476C489F45A5A15D7AC8ECC6ACC645ADB43D87679DF59C093BC5A2E9696C5478541B979E754B573914BE55D32FF4C09DDF27219934CD990527B3F92ED78FBF29246ABECB71240EF39C2D7107B447545A7FFB10EB060A68A98580219E36910952683892D6A5E2A80803193E407531404E36B315623799AA825074409754A2DFE8F5AFD5FE631E1FC2AF3808906F28A790D9DD9FE060939B125790C5805D037DF56A99531B96DE69DE33ED226CC1207D1042B5C9AB7F404FC711C0FE4769FB9578B1DC0EC469EA1A25E0FF9914886EF2699B235BB4847DD6FF40B606E6170793C2FB98B314587F9CFD257362DFEAB10B3BD2D97673A1A4BD44C453AAF47FC1F2D3D0F384F74A06F89C089F0DA6CDB7FCEEE8C9821A8E54F25C0416D18C46839A5F8012FBDD3DC74D256279ADC2C0D55AFF6F0622425D1B\";\n    bytes public constant intelRootExponent = hex\"010001\";\n\n    modifier onlyOwner() {\n        require(msg.sender == owner);\n        _;\n    }\n\n\n    constructor() payable public {\n        owner = msg.sender;\n        bounty = msg.value;\n    }\n\n    function submitEnclave(bytes calldata report,\n        bytes calldata sig,\n        bytes memory cert,\n        bytes32 mrenclave,\n        bytes32 mrsigner\n    ) public {\n        // Verify the leafX509Cert was signed with signingMod and signingExp\n        (bytes memory leafCertModulus, bytes memory leafCertExponent) =\n            X509Verifier.verifySignedX509(cert, intelRootModulus, intelRootExponent);\n\n        // Verify report has expected fields then extract its payload\n        bytes memory payload = RemoteAttestation.verifyRemoteAttestation(report, sig, leafCertModulus, leafCertExponent, mrenclave, mrsigner);\n\n        address enclaveAddr = address(bytes20(payload));\n\n        require(!enclaveApproved[enclaveAddr], \"address already approved\");\n        enclaveApproved[enclaveAddr] = true;\n    }\n\n    function collectBounty(address enclaveAddr, bytes memory proofBlob, bytes memory sig) public {\n        require(!claimed, \"bounty already claimed\");\n        require(enclaveApproved[enclaveAddr], \"address not approved\");\n\n        bytes32 hash = hash_data(proofBlob);\n        address signer = recover(hash, sig);\n        require(signer == enclaveAddr, \"incorrect signature\");\n\n        RLPReader.RLPItem[] memory items = proofBlob.toRlpItem().toList();\n        uint blockNum = items[0].toUint();\n        bytes32 blockHash = toBytes32(items[1].toBytes());\n        require(blockhash(blockNum) == blockHash, \"block hash does not match block number\");\n\n        claimed = true;\n        payable(msg.sender).transfer(bounty);\n        emit BountyClaimed(msg.sender);\n    }\n\n    function hash_data(bytes memory data) internal pure returns (bytes32) {\n        bytes memory eth_prefix = '\\x19Ethereum Signed Message:\\n';\n        bytes memory packed = abi.encodePacked(eth_prefix,uint2str(data.length),data);\n        return keccak256(packed);\n    }\n\n    function recover(bytes32 hash, bytes memory signature) internal pure returns (address) {\n        if (signature.length == 65) {\n            bytes32 r;\n            bytes32 s;\n            uint8 v;\n            // ecrecover takes the signature parameters, and the only way to get them\n            // currently is to use assembly.\n            /// @solidity memory-safe-assembly\n            assembly {\n                r := mload(add(signature, 0x20))\n                s := mload(add(signature, 0x40))\n                v := byte(0, mload(add(signature, 0x60)))\n            }\n            if (uint256(s) > 0x7FFFFFFFFFFFFFFFFFFFFFFFFFFFFFFF5D576E7357A4501DDFE92F46681B20A0) {\n                revert(\"ECDSA: invalid signature 's' value\");\n            }\n            address signer = ecrecover(hash, v, r, s);\n            if (signer == address(0)) {\n                revert(\"ECDSA: invalid signature\");\n            }\n            return signer;\n        } else {\n            revert(\"ECDSA: invalid signature length\");\n        }\n    }\n\n    function uint2str( uint256 _i ) internal pure returns (string memory str) {\n        if (_i == 0)\n        {\n            return \"0\";\n        }\n        uint256 j = _i;\n        uint256 length;\n        while (j != 0)\n        {\n            length++;\n            j /= 10;\n        }\n        bytes memory bstr = new bytes(length);\n        uint256 k = length;\n        j = _i;\n        while (j != 0)\n        {\n            bstr[--k] = bytes1(uint8(48 + j % 10));\n            j /= 10;\n        }\n        str = string(bstr);\n    }\n\n    function toBytes32(bytes memory b) internal pure returns (bytes32) {\n        bytes32 out;\n        for (uint i = 0; i < 32; i++) {\n          out |= bytes32(b[i] & 0xFF) >> (i * 8);\n        }\n        return out;\n    }\n\n}",
  "sourcePath": "/Sting-Flashbots/searcher/solidity/contracts/Honeypot.sol",
  "compiler": {
    "name": "solc",
    "version": "0.8.20+commit.a1b79de6.Emscripten.clang"
  },
  "schemaVersion": "3.4.4",
  "updatedAt": "2023-10-27T01:09:35.138Z",
  "devdoc": {
    "kind": "dev",
    "methods": {},
    "version": 1
  },
  "userdoc": {
    "errors": {
      "BadReportSignature()": [
        {
          "notice": "Bad report signature"
        }
      ]
    },
    "kind": "user",
    "methods": {},
    "version": 1
  }
}