{
  "contractName": "RemoteAttestation",
  "abi": [
    {
      "inputs": [],
      "name": "BadReportSignature",
      "type": "error"
    },
    {
      "inputs": [
        {
          "internalType": "bytes",
          "name": "report",
          "type": "bytes"
        },
        {
          "internalType": "bytes",
          "name": "sig",
          "type": "bytes"
        },
        {
          "internalType": "bytes",
          "name": "signingMod",
          "type": "bytes"
        },
        {
          "internalType": "bytes",
          "name": "signingExp",
          "type": "bytes"
        }
      ],
      "name": "verifyReportSignature",
      "outputs": [
        {
          "internalType": "bool",
          "name": "",
          "type": "bool"
        }
      ],
      "stateMutability": "view",
      "type": "function"
    }
  ],
  "bytecode": "0x61071261004e600b8282823980515f1a607314610042577f4e487b71000000000000000000000000000000000000000000000000000000005f525f60045260245ffd5b305f52607381538281f3fe7300000000000000000000000000000000000000003014608060405260043610610034575f3560e01c80633549c40e14610038575b5f80fd5b610052600480360381019061004d91906103d2565b610068565b60405161005f91906104c4565b60405180910390f35b5f805f6100b9858589898080601f0160208091040260200160405190810160405280939291908181526020018383808284375f81840152601f19601f82011690508083019250505050505050610147565b915091505f6100de602083516100cf9190610513565b8361016190919063ffffffff16565b905082801561013957506002896040516100f891906105b2565b602060405180830381855afa158015610113573d5f803e3d5ffd5b5050506040513d601f19601f8201168201806040525081019061013691906105fb565b81145b935050505095945050505050565b5f606061015583858761018a565b91509150935093915050565b5f82516020836101719190610626565b111561017b575f80fd5b81602084010151905092915050565b5f60605f8551855185518888886040516020016101ac96959493929190610679565b6040516020818303038152906040529050835167ffffffffffffffff8111156101d8576101d7610251565b5b6040519080825280601f01601f19166020018201604052801561020a5781602001600182028036833780820191505090505b50915083516020830182516020840160055afa925050935093915050565b5f604051905090565b5f80fd5b5f80fd5b5f80fd5b5f80fd5b5f601f19601f8301169050919050565b7f4e487b71000000000000000000000000000000000000000000000000000000005f52604160045260245ffd5b61028782610241565b810181811067ffffffffffffffff821117156102a6576102a5610251565b5b80604052505050565b5f6102b8610228565b90506102c4828261027e565b919050565b5f67ffffffffffffffff8211156102e3576102e2610251565b5b6102ec82610241565b9050602081019050919050565b828183375f83830152505050565b5f610319610314846102c9565b6102af565b9050828152602081018484840111156103355761033461023d565b5b6103408482856102f9565b509392505050565b5f82601f83011261035c5761035b610239565b5b813561036c848260208601610307565b91505092915050565b5f80fd5b5f80fd5b5f8083601f84011261039257610391610239565b5b8235905067ffffffffffffffff8111156103af576103ae610375565b5b6020830191508360018202830111156103cb576103ca610379565b5b9250929050565b5f805f805f608086880312156103eb576103ea610231565b5b5f86013567ffffffffffffffff81111561040857610407610235565b5b61041488828901610348565b955050602086013567ffffffffffffffff81111561043557610434610235565b5b6104418882890161037d565b9450945050604086013567ffffffffffffffff81111561046457610463610235565b5b61047088828901610348565b925050606086013567ffffffffffffffff81111561049157610490610235565b5b61049d88828901610348565b9150509295509295909350565b5f8115159050919050565b6104be816104aa565b82525050565b5f6020820190506104d75f8301846104b5565b92915050565b5f819050919050565b7f4e487b71000000000000000000000000000000000000000000000000000000005f52601160045260245ffd5b5f61051d826104dd565b9150610528836104dd565b92508282039050818111156105405761053f6104e6565b5b92915050565b5f81519050919050565b5f81905092915050565b5f5b8381101561057757808201518184015260208101905061055c565b5f8484015250505050565b5f61058c82610546565b6105968185610550565b93506105a681856020860161055a565b80840191505092915050565b5f6105bd8284610582565b915081905092915050565b5f819050919050565b6105da816105c8565b81146105e4575f80fd5b50565b5f815190506105f5816105d1565b92915050565b5f602082840312156106105761060f610231565b5b5f61061d848285016105e7565b91505092915050565b5f610630826104dd565b915061063b836104dd565b9250828201905080821115610653576106526104e6565b5b92915050565b5f819050919050565b61067361066e826104dd565b610659565b82525050565b5f6106848289610662565b6020820191506106948288610662565b6020820191506106a48287610662565b6020820191506106b48286610582565b91506106c08285610582565b91506106cc8284610582565b915081905097965050505050505056fea26469706673582212206cea9279e3aba362b557d7cf5833498a7307d11df256f38f632ec5fc11604ba464736f6c63430008140033",
  "immutableReferences": {},
  "source": "// SPDX-License-Identifier: UNLICENSED\npragma solidity ^0.8.0;\n\nimport { BytesUtils } from \"../ens-contracts/dnssec-oracle/BytesUtils.sol\";\nimport { RSAVerify } from \"../ens-contracts/dnssec-oracle/algorithms/RSAVerify.sol\";\nimport \"./JSONBuilder.sol\";\nimport { Base64 } from \"../openzeppelin/utils/Base64.sol\";\n\nlibrary RemoteAttestation {\n    using BytesUtils for *;\n\n    uint256 constant QUOTE_BODY_LENGTH = 432;\n    uint256 constant MRENCLAVE_OFFSET = 112;\n    uint256 constant MRSIGNER_OFFSET = 176;\n    uint256 constant PAYLOAD_OFFSET = 368;\n    uint256 constant PAYLOAD_SIZE = 64;\n\n    /**\n     * Bad report signature\n     */\n    error BadReportSignature();\n\n    function verifyRemoteAttestation(\n        bytes calldata report,\n        bytes calldata sig,\n        bytes memory signingMod,\n        bytes memory signingExp,\n        bytes32 mrenclave,\n        bytes32 mrsigner\n    ) internal view returns (bytes memory payload) {\n        // Decode the encoded report JSON values to a Values struct and reconstruct the original JSON string\n        (JSONBuilder.Values memory reportValues, bytes memory reportBytes) = _buildReportBytes(report);\n\n        // Verify the report was signed by the SigningPK\n        if (!verifyReportSignature(reportBytes, sig, signingMod, signingExp)) {\n            revert BadReportSignature();\n        }\n\n        // Verify the report's contents match the expected\n        payload = _verifyReportContents(reportValues, mrenclave, mrsigner);\n    }\n\n    function _buildReportBytes(bytes memory encodedReportValues)\n        internal\n        view\n        returns (JSONBuilder.Values memory reportValues, bytes memory reportBytes)\n    {\n        // Decode the report JSON values\n        (\n            bytes memory id,\n            bytes memory timestamp,\n            bytes memory version,\n            bytes memory advisoryURL,\n            bytes memory advisoryIDs,\n            bytes memory isvEnclaveQuoteStatus,\n            bytes memory platformInfoBlob,\n            bytes memory isvEnclaveQuoteBody\n        ) = abi.decode(encodedReportValues, (bytes, bytes, bytes, bytes, bytes, bytes, bytes, bytes));\n\n        // Assumes the quote body was already decoded off-chain\n        bytes memory encBody = bytes(Base64.encode(isvEnclaveQuoteBody));\n\n        // Pack values to struct\n        reportValues = JSONBuilder.Values(\n            id, timestamp, version, advisoryURL, advisoryIDs, isvEnclaveQuoteStatus, platformInfoBlob, encBody\n        );\n\n        // Reconstruct the JSON report that was signed\n        reportBytes = bytes(JSONBuilder.buildJSON(reportValues));\n\n        // Pass on the decoded value for later processing\n        reportValues.isvEnclaveQuoteBody = isvEnclaveQuoteBody;\n    }\n\n    function verifyReportSignature(\n        bytes memory report,\n        bytes calldata sig,\n        bytes memory signingMod,\n        bytes memory signingExp\n    ) public view returns (bool) {\n        // Use signingPK to verify sig is the RSA signature over sha256(report)\n        (bool success, bytes memory got) = RSAVerify.rsarecover(signingMod, signingExp, sig);\n        // Last 32 bytes is recovered signed digest\n        bytes32 recovered = got.readBytes32(got.length - 32);\n        return success && recovered == sha256(report);\n    }\n\n    function _verifyReportContents(JSONBuilder.Values memory reportValues, bytes32 mrenclave, bytes32 mrsigner)\n        internal\n        pure\n        returns (bytes memory payload)\n    {\n        // check enclave status\n        bytes32 status = keccak256(reportValues.isvEnclaveQuoteStatus);\n//        require(status == OK_STATUS || status == HARDENING_STATUS, \"bad isvEnclaveQuoteStatus\");\n\n        // quote body is already base64 decoded\n        bytes memory quoteBody = reportValues.isvEnclaveQuoteBody;\n        assert(quoteBody.length == QUOTE_BODY_LENGTH);\n\n        // Verify report's MRENCLAVE matches the expected\n        bytes32 mre = quoteBody.readBytes32(MRENCLAVE_OFFSET);\n        require(mre == mrenclave);\n\n        // Verify report's MRSIGNER matches the expected\n        bytes32 mrs = quoteBody.readBytes32(MRSIGNER_OFFSET);\n        require(mrs == mrsigner);\n\n        // Verify report's <= 64B payload matches the expected\n        payload = quoteBody.substring(PAYLOAD_OFFSET, PAYLOAD_SIZE);\n    }\n}\n",
  "sourcePath": "/Sting-Flashbots/searcher/solidity/contracts/rave/RemoteAttestation.sol",
  "compiler": {
    "name": "solc",
    "version": "0.8.20+commit.a1b79de6.Emscripten.clang"
  },
  "schemaVersion": "3.4.4",
  "updatedAt": "2023-10-27T01:09:35.231Z",
  "devdoc": {
    "kind": "dev",
    "methods": {},
    "version": 1
  },
  "userdoc": {
    "errors": {
      "BadReportSignature()": [
        {
          "notice": "Bad report signature"
        }
      ]
    },
    "kind": "user",
    "methods": {},
    "version": 1
  }
}